:100000000C9434000C943E000C943E000C943E0082
:100010000C943E000C943E000C943E000C943E0068
:100020000C943E000C943E000C943E000C943E0058
:100030000C943E000C943E000C943E000C943E0048
:100040000C943E000C943E000C943E000C943E0038
:100050000C943E000C943E000C943E000C943E0028
:100060000C943E000C943E0011241FBECFEFD8E04C
:10007000DEBFCDBF0E9466000C9474000C9400009B
:100080009093C5008093C400E1ECF0E0808188612A
:100090008083E2ECF0E080818660808380818F7DC8
:1000A000808380818F7E80838081877F8083089595
:1000B0008091C00087FFFCCF8091C6000895909189
:1000C000C00095FFFCCF8093C600089587E690E0BE
:1000D0000E9440000E945800C82F83E20E945F00E7
:0C00E0008C2F0E945F00F6CFF894FFCF39
:00000001FF
